:020000040800F2
:10000000A0060020290200080113000803130008BD
:10001000071300080B1300080F130008000000006E
:1000200000000000000000000000000013130008A2
:10003000151300080000000017130008191300082A
:10004000430200084302000843020008430200087C
:10005000430200084302000843020008430200086C
:10006000430200084302000843020008430200085C
:10007000430200084302000843020008430200084C
:10008000430200084302000843020008430200083C
:10009000430200084302000843020008430200082C
:1000A000430200084302000843020008430200081C
:1000B000430200084302000843020008430200080C
:1000C00043020008430200084302000843020008FC
:1000D00043020008430200084302000843020008EC
:1000E00043020008430200084302000843020008DC
:1000F00043020008430200084302000843020008CC
:1001000043020008430200084302000843020008BB
:1001100043020008430200084302000843020008AB
:10012000430200084302000843020008430200089B
:10013000430200084302000843020008430200088B
:10014000430200084302000843020008430200087B
:10015000430200084302000843020008430200086B
:10016000430200084302000843020008430200085B
:10017000430200084302000843020008430200084B
:10018000430200084302000800F002F800F03CF8C7
:100190000AA090E8000C82448344AAF10107DA45E2
:1001A00001D100F031F8AFF2090EBAE80F0013F0F8
:1001B000010F18BFFB1A43F0010318478016000017
:1001C000A0160000103A24BF78C878C1FAD85207A8
:1001D00024BF30C830C144BF04680C6070470000C1
:1001E0000023002400250026103A28BF78C1FBD840
:1001F000520728BF30C148BF0B6070471FB501F0E0
:1002000018FB1FBD10B510BD01F0DDFA1146FFF758
:10021000F5FF01F063F801F0FBFA03B4FFF7F2FF1A
:1002200003BC01F0FFFA0000094880470948004775
:10023000FEE7FEE7FEE7FEE7FEE7FEE7FEE7FEE796
:10024000FEE7FEE704480549054A064B70470000F3
:100250004503000889010008A0000020A006002036
:10026000A0020020A00200200CB500200190009008
:100270007648006840F480307449086000BF7348D5
:10028000006800F4003000900198401C0190009834
:1002900018B90198B0F5A04FF1D16C48006800F48E
:1002A000003010B10120009001E000200090009883
:1002B000012846D165484030006840F080506349CD
:1002C000403108606248006840F44040604908607E
:1002D0005E48083000685D490831086008460068DB
:1002E00040F4004008600846006840F4A0500860F0
:1002F0005848091F0860081F006840F08070091FF7
:10030000086000BF5148006800F000700028F9D074
:1003100040F20560504908604C480830006820F001
:1003200003004A49083108600846006840F00200AE
:10033000086000BF45480830006800F00C0008283D
:10034000F8D10CBD10B54548006840F47000434931
:1003500008603E48006840F001003C490860002009
:100360003A4908310860394800683D490840374932
:1003700008603C48091D0860081F006820F48020C0
:10038000091F0860002031490C310860FFF76CFF3D
:100390004FF0006031498039086010BD70B5002011
:1003A0000022022300240221284D08352D6805F083
:1003B0000C0020B1042806D0082834D107E02A4DCB
:1003C0002A4E356033E02A4D284E35602FE01F4D10
:1003D0002D1D2D68C5F380541C4D2D1D2D6805F075
:1003E0003F0154B1224DB5FBF1F5184E361D36686C
:1003F000C6F3881605FB06F209E01B4DB5FBF1F5C7
:10040000124E361D3668C6F3881605FB06F20F4DF0
:100410002D1D2D68C5F301456D1C6B00B2FBF3F576
:10042000124E356003E0104D104E356000BF00BF26
:10043000064D08352D68C5F303150E4E705D0B4D46
:100440002D68C540094E356070BD0000003802407F
:100450000070004008544007003C024088ED00E076
:10046000FFFFF6FE103000240024F40000000020FE
:1004700000127A000400002032490143324A116020
:10048000704770B5002100230F22C4781CB32E4C96
:10049000246804F4E064C4F5E064C4F30721C1F106
:1004A0000404E3B20A4144789C40E1B284781440E9
:1004B00021430C07210E254C05786155047804F082
:1004C0001F050124AC4005786D11AD0005F1E02554
:1004D000C5F8004109E0047804F01F050124AC4090
:1004E0001B4D0678761145F8264070BD194A0A4022
:1004F0000243154B1B1F1A60704739B1124A121D77
:1005000012680243104B1B1D1A6006E00E4A121DB2
:10051000126882430C4B1B1D1A607047042808D1D7
:100520004FF0E021096941F004014FF0E022116130
:1005300007E04FF0E021096921F004014FF0E022CB
:10054000116170470000FA050CED00E000E400E0E6
:1005500080E100E080FFFF1F002044490860091D82
:100560000860091D0860091D086041483F491431B1
:100570000860704700213D498279002A3AD00A4636
:10058000126803689A430B461A600A1D12680368D2
:100590009A430B1D1A60027911440A6803681A43D2
:1005A0000A60324A0832126803689A432F4B0833B4
:1005B0001A601A1D126803689A432C4B0C331A6098
:1005C0004279102A0ED11A1F126803681A43274B6A
:1005D00008331A601A1D126803681A43234B0C3340
:1005E0001A600DE02149427911440A6803681A43F0
:1005F0000A6005E0027911440A6803689A430A60B8
:1006000070470021016001710C214171002181714D
:1006100070471649103109680143144A10321160BD
:10062000704701460020114A143212680A400AB18C
:10063000012000E0002070470C4914310860704729
:10064000014600200022094B1B6803EA0102074B08
:1006500014331B680B4013B10AB1012000E00020E5
:10066000704702491431086070470000003C0140A7
:10067000FFFF7F0010B504468C48844208D1012159
:10068000084600F000FB0021012000F0FCFA5EE0CB
:100690008748844208D10121022000F0F4FA0021A9
:1006A000022000F0F0FA52E08248844208D1012191
:1006B000042000F0E8FA0021042000F0E4FA46E00B
:1006C0007D48844208D10121082000F0DCFA002195
:1006D000082000F0D8FA3AE07848844208D1012195
:1006E000102000F0D0FA0021102000F0CCFA2EE00B
:1006F0007348844208D10121202000F0C4FA00216F
:10070000202000F0C0FA22E06E48844208D1012186
:10071000402000F0B8FA0021402000F0B4FA16E0C2
:100720006948844208D10121802000F0ACFA002100
:10073000802000F0A8FA0AE06448844207D1012131
:10074000801500F0A0FA0021A01500F09CFA10BD61
:10075000F0B50A4600210023002400BF3DE001253A
:1007600005FA01F3156805EA03049C4234D10568D3
:100770004F000326BE40B543056015794E00B540D5
:100780000668354305601579012D02D01579022DD3
:1007900016D185684F000326BE40B5438560557964
:1007A0004E00B540866835438560456801268E4019
:1007B000B5434560456896798E40B6B2354345608D
:1007C000C5684F000326BE40B543C560D5794E00CD
:1007D000B540C6683543C560491C1029BFD3F0BD7C
:1007E0004FF6FF7101600021017141718171C1718A
:1007F000704708B54FF480320092009A0A43009285
:10080000009AC261C161009AC261C2690092C26964
:10081000009208BD0246002013690B400BB1012075
:1008200000E0002070470146086980B27047024628
:10083000002053690B400BB1012000E000207047FD
:100840000146486980B27047018370474183704711
:100850000AB1018300E041837047416170474269FA
:100860004A4042617047F0B5002300244D07ED0E69
:1008700002FA05F3CE1000F1200555F826504E0778
:10088000F70E0F26BE40B543CF1000F1200646F804
:100890002750CE1000F1200555F8265045EA0304F4
:1008A000CE1000F1200545F82640F0BD00000240C2
:1008B0000004024000080240000C02400010024008
:1008C0000014024000180240001C024000200240B8
:1008D000FA48006840F00100F84908600020F74934
:1008E00008310860F5480068F5490840F349086098
:1008F000F448091D0860081F006820F48020091FC3
:1009000008600020ED490C31086070470021EB4A77
:10091000921C117011460870704710B501460022F4
:10092000002300204A11012A02D1E44C236808E088
:10093000022A03D1E14C7034236802E0DF4C7434A6
:10094000236801F01F02012494401C400CB10120D7
:1009500000E0002010BD38B50020009000240025E4
:1009600000BF3120FFF7D9FF05460098401C0090DA
:100970000098B0F5A04F01D0002DF2D03120FFF744
:10098000CCFF08B1012400E00024204638BD014618
:100990000020CA4A106820F0F80040EAC100106048
:1009A0007047C949086070470021C44A703211700D
:1009B0001170012802D004280AD104E00121BF4AA5
:1009C0007032117005E00521BC4A7032117000E0F0
:1009D00000BF00BF7047BD490860704770B5049CF8
:1009E00041EA82150126C6EB530645EA0645054352
:1009F00045EA0465B14E361D356070BDB2490866E2
:100A00007047820142EA0172AC4B84331A6070472E
:100A1000AD4988667047AC49C864704702460020FB
:100A2000A64B0833186820F0EC6042EA0103184333
:100A3000A24B083318607047024600209F4B0833D2
:100A4000186820F0784042EA010318439B4B0833B2
:100A50001860704701460020984A0832106820F05C
:100A6000030008431060704794480830006800F0A5
:100A70000C00704701460020904A0832106820F0B0
:100A8000F000084310607047014600208B4A08328E
:100A9000106820F4E05008431060704701460020C1
:100AA000864A0832106820F4604040EAC1001060B5
:100AB0007047F0B500210022002402250026022301
:100AC0007E4F08373F6807F00C0121B1042905D09B
:100AD000082937D105E07E4F076036E07D4F07607B
:100AE00033E0764F3F1D3F68C7F38056734F3F1D7D
:100AF0003F6807F03F036EB1764FB7FBF3F7DFF8BF
:100B0000BCC10CF1040CDCF800C0CCF3881C07FB62
:100B10000CF40CE06E4FB7FBF3F7DFF8A0C10CF15B
:100B2000040CDCF800C0CCF3881C07FB0CF4634F0A
:100B30003F1D3F68C7F301477F1C7D00B4FBF5F7FD
:100B4000076002E0624F076000BF00BF5B4F0837DD
:100B50003F6807F0F00109095F4F7A5C0768D740EA
:100B60004760564F08373F6807F4E051890A5A4FEB
:100B70007A5C4768D7408760504F08373F6807F472
:100B80006041490B544F7A5C4768D740C760F0BD5D
:100B9000002100F44072B2F5407F0AD1474A083282
:100BA000116821F4F8114D4A02401143434A0832BA
:100BB0001160424A70321268C0F30B031A433F4B74
:100BC00070331A60704741494439086070473F49A3
:100BD00040390860704742490860704739B1374A68
:100BE000303212680243354B30331A6006E0334A24
:100BF000303212688243314B30331A60704739B15A
:100C00002E4A3432126802432C4B34331A6006E009
:100C10002A4A343212688243284B34331A607047B0
:100C200039B1264A383212680243244B38331A60ED
:100C300006E0224A383212688243204B38331A6069
:100C4000704739B11D4A4032126802431B4B403392
:100C50001A6006E0194A403212688243174B40334B
:100C60001A60704739B1154A443212680243134B77
:100C700044331A6006E0114A4432126882430F4B33
:100C800044331A60704739B10C4A1032126802437B
:100C90000A4B10331A6006E0084A10321268824389
:100CA000064B10331A607047E1B1044A14321268DF
:100CB0000243024B14331A6019E00000003802406E
:100CC000FFFFF6FE1030002400004742800E47422E
:100CD0000024F40000127A0014000020FFFCFF0F33
:100CE0005C0147425B4A126882435A4B1A60704764
:100CF00039B1584A121D12680243564B1B1D1A6027
:100D000006E0544A121D12688243524B1B1D1A60A2
:100D1000704739B14F4A0C32126802434D4B0C33C5
:100D20001A6006E04B4A0C3212688243494B0C337E
:100D30001A60704739B1474A103212680243454B76
:100D400010331A6006E0434A103212688243414B66
:100D500010331A60704739B13E4A3C321268024380
:100D60003C4B3C331A6006E03A4A3C3212688243FC
:100D7000384B3C331A60704739B1364A40321268FA
:100D80000243344B40331A6006E0324A4032126864
:100D90008243304B40331A60704739B12D4A443298
:100DA000126802432B4B44331A6006E0294A44324E
:100DB00012688243274B44331A60704739B1254A81
:100DC0004C3212680243234B4C331A6006E0214A2E
:100DD0004C32126882431F4B4C331A60704739B152
:100DE0001C4A5032126802431A4B50331A6006E014
:100DF000184A503212688243164B50331A607047BB
:100E000039B1144AD21F12780243124BDB1F1A70F9
:100E100006E0104AD21F127882430E4BDB1F1A7075
:100E200070470C486030006840F0807009496031BC
:100E30000860704701460020064A083A12680A40D6
:100E40000AB1012000E0002070470249891F0870A4
:100E5000704700001438024010B50446F748844239
:100E600008D101218014FFF765FF0021A014FFF7CE
:100E700061FF16E0F248844208D101210014FFF717
:100E800048FF00212014FFF744FF0AE0ED488442A8
:100E900007D10121C013FFF73CFF0021E013FFF74A
:100EA00038FF10BD10B50022028802F441520B88B1
:100EB0004C8823438C882343CC8823430C892343C9
:100EC0004C8923438C892343CC8923431A430280D2
:100ED000838B4FF2FF74234083830B8A038210BD00
:100EE0002DE9F04F002502230024012700220026CF
:100EF000944690469146B0F81CA04FF2400B0AEA87
:100F00000B0AA0F81CA04FF0020AA0F820A0858BC5
:100F1000D1F808A0BAF1020F01D100BF6CE0B1F81E
:100F200004A0BAF1000F01D1012700E00227DFF889
:100F300018A3DAF800A00AF4000ABAF1000F09D0E9
:100F4000DFF804A3DAF800A02AF4000ADFF8F8B208
:100F5000CBF800A0DFF8F0A20AF17C0ADAF800A0D2
:100F6000CAF38818DFF8E0A20AF17C0ADAF800A0D8
:100F7000CAF30279DFF8D0A2AAF1040ADAF800A0D5
:100F80000AF03F0CDFF8C4A2BAFBFCFA0AFB08FA2D
:100F9000BAFBF9F6B1F806A0BAF5007F0ED14FEA18
:100FA000162A0AEB8A0A4FEA4A0AD1F808B0BAFBB5
:100FB000FBFA0AF1050A1FFA8AF20FE04FEA471A14
:100FC000B6FBFAFA0AEB8A0A4FEA4A0AD1F808B0E5
:100FD000BAFBFBFA0AF1050A1FFA8AF24FF00A0A75
:100FE000B2FBFAF202F00104A2EB040ACAF34F03C7
:100FF0004FF6FF7A0AEA0424022B01DBFF2B01DD06
:1010000002230024B1F806A04AEA040A4AEA030AC5
:10101000A0F820A0B1F804A0B1F80CB04AEA0B0A7D
:10102000B1F802B04AEA0B0AB1F800B04AEA0B0A7A
:101030004AF4006A4AEA05058583BDE8F08F00217D
:10104000018041808180C180018141818181C18194
:101050000721018270470021018041808180C18089
:101060000221816000218181704721B1028842F014
:101070004002028004E002884FF6BF731A400280EB
:10108000704721B1828B42F48062828304E0828BBC
:101090004FF6FF331A408283704702884FF2FF7386
:1010A0001A40028002880A4302807047B1F5804FDF
:1010B00004D1028842F48042028004E002884BF6A8
:1010C000FF731A40028070474FF6FF62914204D0CE
:1010D000028842F48072028004E002884FF6FF63C7
:1010E0001A400280704721B1828842F00402828057
:1010F00004E082884FF6FB731A408280704721B16A
:10110000828842F01002828004E082884FF6EF73FA
:101110001A408280704730B500220023848B4FF242
:1011200040052C40848302240484828B0C88B4F50F
:10113000007F01D00C8814B94FF4807308E00C884C
:10114000B4F5407F03D00C88B4F5807F00D1002334
:101150008C888D892C434D882C431C4344F40064B7
:101160002243828330BD0146888970478181704760
:1011700021B1028842F40052028004E002884DF658
:10118000FF731A4002807047018841F4805101804A
:10119000704702460020012901D0108B00E0908AA0
:1011A00070470146088A70471AB183880B438380D1
:1011B00002E083888B438380704730B5002400238E
:1011C0000C110125A540ABB21AB185881D4385805D
:1011D00002E085889D43858030BD0246002013894A
:1011E0000B400BB1012000E000207047CA43028190
:1011F0007047F0B50246002000240023002501F0CE
:101200000F070126BE40B4B20B1101269E40B3B2B7
:10121000968806EA03051689264016B10DB101200D
:1012200000E00020F0BD10B5002201F00F04012302
:10123000A3409AB2D343038110BD000000300140A7
:1012400000380040003C00400838024000127A009C
:1012500010B501218803FFF76DFD00214FF4804098
:10126000FFF768FD10BD1A490860704730B50022CD
:101270008B071C0F0F2303FA04F2154B08338C1055
:1012800053F824309343124C08348D1044F8253021
:1012900023468C1053F824308C07240F00FA04F4F2
:1012A00023430B4C08348D1044F8253030BD0949D8
:1012B00008607047084908607047002004492031E1
:1012C000096801F4807109B1012000E00020704735
:1012D00000380140DC00274200042742A82000F02B
:1012E000F1F94FF4FA7000F009FA00F062F900F039
:1012F00030F804E00A2000F001FA00F0D2F8F9E733
:10130000704700BFFEE700BFFEE700BFFEE700BF7B
:10131000FEE77047704770477047000070B505469C
:101320000C4610219448FFF791FA0A2000F002FAC7
:10133000284600F029F9204600F026F90A2000F09E
:10134000F9F910218C48FFF77FFA012000F0D6F957
:1013500070BD10B580216B20FFF7E0FF142000F076
:10136000CDF903216B20FFF7D9FF00216C20FFF797
:10137000D5FF00211920FFF7D1FF04211A20FFF724
:10138000CDFF18211B20FFF7C9FF00211C20FFF70C
:10139000C5FF04211D20FFF7C1FF30213720FFF7D3
:1013A000BDFF01213820FFF7B9FF4D212420FFF7B1
:1013B000B5FF20216A20FFF7B1FF13213420FFF78A
:1013C000ADFF01216720FFF7A9FF0C212520FFF7C2
:1013D000A5FF81212720FFF7A1FF0B212620FFF782
:1013E0009DFF01216320FFF799FF322000F086F96D
:1013F0000A212620FFF792FF16216320FFF78EFFB8
:10140000322000F07BF98C212520FFF787FF032194
:101410002620FFF783FF87212720FFF77FFF10BDDE
:1014200000B585B001210846FFF7D8FB01218803EC
:10143000FFF718FC00208DF810008DF813000C2029
:10144000039003208DF8110003A94B48FFF780F9A2
:1014500028208DF8000000208DF8010003208DF871
:10146000020001208DF803006846FFF70AF80C21FE
:101470000020FFF7FBFE4FF48050019001208DF813
:101480000A0000208DF8080008208DF8090001A846
:10149000FFF770F84FF480513748FFF7D7F905B0E0
:1014A00000BD10B586B010213348FFF7CFF9BB203F
:1014B00000F06AF8002406E0FF2000F065F801A9BA
:1014C0000855601CC4B2142CF6DB10212A48FFF723
:1014D000BBF99DF805009DF8041040EA012000B218
:1014E000264908809DF807009DF8061040EA012073
:1014F00000B2224948809DF809009DF8081040EA92
:10150000012000B21D4988809DF80D009DF80C1047
:1015100040EA012000B21A4908809DF80F009DF8AA
:101520000E1040EA012000B2154948809DF81100D4
:101530009DF8101040EA012000B2114988809DF802
:1015400012009DF8131040EA012000B20D490880F6
:101550009DF814009DF8151040EA012000B20949D9
:1015600048809DF816009DF8171040EA012000B24F
:101570000449888006B010BD00000240240000200D
:101580002A00002030000020014600BF48480089A2
:1015900000F002000028F9D04548818100BF44488E
:1015A000008900F001000028F9D041488089C0B2CC
:1015B000704700B587B03F4800683F4908403D4943
:1015C00008600846006840F44C30086001213B4840
:1015D000FFF704FB01210803FFF744FB20200090E4
:1015E00002208DF804008DF8050000208DF806001B
:1015F00001208DF8070069463148FFF7A9F840201F
:10160000009069462E48FFF7A3F8802000906946B5
:101610002B48FFF79DF8052211462948FFF723F9CB
:10162000052206212648FFF71EF905220721244836
:10163000FFF719F910212248FFF706F91020009052
:1016400001208DF8040002208DF8050000208DF89F
:10165000060001208DF8070069461948FFF778F861
:101660000020ADF80800ADF80C004FF48270ADF822
:101670000A000220ADF80E000120ADF81000400273
:10168000ADF812002820ADF814000020ADF81600C7
:101690000720ADF8180002A90548FFF703FC012157
:1016A0000348FFF7E2FCFF20FFF76EFF07B000BD25
:1016B0000030014020040240FF0F00FF0100400005
:1016C000000002404FF0E021096921F004014FF0D1
:1016D000E0221161C21700EB5272C2F3C702344B11
:1016E0001A701946097801EB4102C2EBC1114FF69D
:1016F000FF7202EAC1012F4A1180704701462D4A4C
:1017000012884A434FF0E0235A6100229A61012275
:101710001A6100BF4FF0E022106900F001021AB117
:1017200000F48032002AF5D000224FF0E0231A6145
:101730009A61704701461E4A12784A434FF0E023EF
:101740005A6100229A6101221A6100BF4FF0E02223
:10175000106900F001021AB100F48032002AF5D0BD
:1017600000224FF0E0231A619A6170471248006826
:1017700040F00800104908608020104908800020CF
:10178000091D08800D4924310860401E0B492C3189
:1017900008605320091F088001200849143108807F
:1017A0000648008840F001000449088070470000A6
:1017B000360000203800002040380240000C004075
:1017C000704770477047754600F028F8AE46050030
:1017D0006946534620F00700854618B020B5FEF74D
:1017E00031FDBDE820404FF000064FF000074FF0FC
:1017F00000084FF0000B21F00701AC46ACE8C0092F
:10180000ACE8C009ACE8C009ACE8C0098D46704737
:101810000446AFF300802046FEF7FFFC0048704707
:101820003C00002001491820ABBEFEE72600020064
:1018300070474FF04070E1EE100A70475C180008E6
:10184000000000203C000000C401000898180008B7
:101850003C00002064060000E0010008007A030A52
:101860000000000000000000010203040607080950
:101870000000000001020304010203040607080936
:101880000000000000000000000000000000000058
:08189000000000000000000050
:040000050800018965
:00000001FF
